:1000BE00E4F5801201568F08120003E50812019430
:1000CE0001027701167B012A7D013E7E0107B701F1
:1000DE001BBB012FBD0144BE010CD70120DB013437
:1000EE00DD014ADE0111E70125EB0139ED0150EE8C
:1000FE00000000C175083080BA75083180B57508EA
:10010E003280B075083380AB75083480A67508351B
:10011E0080A1750836809C750837809775083880E1
:10012E0092750839808D75082E808875083D8083FC
:10013E0075082B0200C175082D0200C175082A0230
:08014E0000C175082F0200C179
:1001BA00758CFC758A66D28C308DFDC28CC28DEF2F
:0901CA001F70011E144E70E822A2
:1001560075A00FE5A0540FFC640F601A7F147E0093
:100166001201BAEC640F600EE5A0540FFC44F0F5E2
:10017600A0E5A054F0FD75A00FE5A0540F640F6034
:0D018600097F147E001201BA80EFEC2DFFFE
:010193002249
:10000300EF120194003B77005A7B007A7D009A7EC1
:100013000042B70062BB0082BD00A2BE004AD70007
:100023006ADB008ADD00AADE0052E70072EB009271
:10003300ED00B2EE000000B8E4F509F50A8076752C
:100043000900750A01806E750900750A02806675DC
:100053000900750A03805E750900750A04805675E8
:100063000900750A05804E750900750A06804675F4
:100073000900750A07803E750900750A0880367500
:100083000900750A09802E750900750A0A8026750C
:100093000900750A0B801E750900750A0C80167518
:1000A3000900750A0D800E750900750A0E80067524
:0A00B3000900750A0FE50AF4F58054
:0100BD002220
:030000000201D327
:0C01D300787FE4F6D8FD75810A0200BEBA
:10019400D083D082F8E4937012740193700DA3A3FA
:1001A40093F8740193F5828883E47374029368600E
:0601B400EFA3A3A380DF0E
:00000001FF
