:100A9600120A0412099C8F1212049BAF121203E071
:020AA60080F1DD
:040A24007FE87E03E6
:100A2800758CFC758A66D28C308DFDC28CC28DEFB8
:090A38001F70011E144E70E8222B
:100A0400120A41C280120A24C281D280120A24C26C
:100A140082D281120A24C283D282120A24D283226D
:10099C0075A00FE5A0540FF513640F601D7F147E36
:1009AC0000120A28E513640F6010E5A0540FF5132C
:1009BC0044F0F5A0E5A054F0F51475A00FE5A05493
:1009CC000F640F60097F147E00120A2880EFE51374
:0309DC002514FFE0
:0109DF0022F5
:1003E000EF12024904187704377B04577D04777EA7
:1003F000041FB7043FBB045FBD047FBE0427D704BE
:1004000047DB0467DD0487DE042FE7044FEB046F4E
:10041000ED048FEE00000495E4F513F51480767575
:100420001300751401806E751300751402806675D3
:100430001300751403805E751300751404805675DF
:100440001300751405804E751300751406804675EB
:100450001300751407803E751300751408803675F7
:100460001300751409802E75130075140A80267503
:10047000130075140B801E75130075140C8016750F
:10048000130075140D800E75130075140E8006751B
:0A049000130075140FE514F4F58055
:01049A00223F
:10067D0000003E5149453E00000000427F40000011
:10068D00000042615149460000002141454B3200B6
:10069D0000001814127F1000000027454545390051
:1006AD0000003C4A4949300000000101710D030072
:1006BD0000003649494936000000064949291E0007
:1006CD0000000000000000000018181818180000A5
:1006DD000000080818080800101010101010100065
:1006ED000010183C281810000002040810204000CB
:100A7A000110B80111400808000000000000000041
:1009E000E4FE7D80FBFAEF54018DF0A42EFEEDC3F2
:1009F00013FDEFC313FF0BBB00010AEB64084A7041
:030A0000E5AF0659
:010A030022D0
:0C0A5E000510AF10120A6A751140AF11AC
:100A6A00C284C286C285D2841209E08F90C28422CF
:100AA800C284D286C285D2841209E08F90C2842281
:1006FD00E4F517F518E4F515F516E4F513F5147F83
:10070D00017E00120A28E511B47F03120A5E7F0AEA
:10071D007E00120A28051174082514F8E6FF120A46
:10072D00A80514E51470020513C39408E51364803D
:10073D00948040CB0516E51670020515C39408E5A7
:10074D00156480948040B30518E51870020517C331
:10075D009408E51764809480409B7510B8AF101213
:0A076D000A6A751140AF11020A6A12
:100A4100C2B5D2B4D2877F3F120A6A7FC0120A6A46
:0D0A51007FB8120A6A7F40120A6A0206FD91
:0608C0008B138A14891558
:1008C600E4F516F5177F017E00120A28E511B47FBC
:1008D60003120A5E7F0A7E00120A280511AB13AACC
:1008E60014A915851782851683120003FF120AA81C
:1008F6000517E51770020516C39408E5166480947B
:030906008040C26C
:0109090022CB
:10049B00EF12024904D37704F37B05137D05337EFA
:1004AB0004DBB704FBBB051BBD053BBE04E3D70553
:1004BB0003DB0523DD0543DE04EBE7050BEB052B27
:1004CB00ED054BEE000005547BFF7A06797D8076B7
:1004DB007BFF7A067985806E7BFF7A06798D806645
:1004EB007BFF7A067995805E7BFF7A06799D805635
:1004FB007BFF7A0679A5804E7BFF7A0679AD804625
:10050B007BFF7A0679B5803E7BFF7A0679BD803614
:10051B007BFF7A0679C5802E7BFF7A0679CD802604
:10052B007BFF7A0679D5801E7BFF7A0679DD8016F4
:10053B007BFF7A0679E5800E7BFF7A0679ED8006E4
:0A054B007BFF7A0679F51208C02242
:100954008B2B8A2C892D8C2E8D2FAE2EAF2F7C00C5
:100964007D03120030120555AA06A9077B01C003B6
:10097400C002C001AB2BAA2CA92D120171AB2BAA6A
:100984002CA92D900003E52E852FF0120113900061
:080994000574FFF5F0020113E8
:100875008B198A1A891B900005E475F0011200C6D0
:10088500AB1CAA1DA91EC003C002C001AB19AA1A40
:10089500A91B120151C003C002C001AB19AA1AA9B4
:1008A5001B900005120042F58285F0837403120146
:0B08B50040D001D002D0031201F0225D
:06090A008B1F8A208921E9
:10091000752200752300752400900005120042FF27
:10092000AEF0C3EE648094804023120151E94A4B3B
:10093000601BAB1FAA20A9211201518F828E8374E4
:10094000031201401201C08B228A238924AB22AA00
:0309500023A924B4
:010953002281
:060777008B258A2689276C
:10077D00752800752900752A00900005120042C3E6
:10078D00E5F0648094804040120151E94A4B603895
:10079D00AB25AA26A927120151C003C002C001AB87
:1007AD0025AA26A92790000574FFF5F012007A8579
:1007BD00F082F5837403120140D001D002D00312F0
:0E07CD0001C08B288A29892AAB28AA29A92ACB
:0107DB0022FB
:0E0AB8009000051200422401FFE435F0FE22FA
:100829008B388A39893A120151EA494B6010AB3841
:10083900AA39A93A120151AE02AF011202DD7B00B9
:100849007A007900C003C002C001AB38AA39A93ABD
:10085900120171AB38AA39A93A900003E4F5F012F4
:0C086900011390000574FFF5F00201136C
:030000000205F105
:0C05F100787FE4F6D8FD75813A020638E8
:10000300BB010CE58229F582E5833AF583E02250B2
:1000130006E92582F8E622BBFE06E92582F8E222FC
:0D002300E58229F582E5833AF583E4932216
:10003000EF8DF0A4A8F0CF8CF0A428CE8DF0A42EE4
:02004000FE229E
:10004200BB0110E58229F582E5833AF583E0F5F0FC
:10005200A3E0225009E92582F886F008E622BBFED9
:100062000AE92582F8E2F5F008E222E5832AF5831F
:08007200E993F5F0A3E99322E4
:10007A00BB010FF8E58229F582E5833AF583E802A8
:10008A0002855011C58229F808C5F026C6F5F01870
:10009A00C58236C622BBFE15C58229F808E2C5F01C
:1000AA0025F0F218E2C5823582F2E58222E5832A3A
:0C00BA00F583E993F5F0A3E993C5F0226B
:1000C600BB010DC58229C582C5833AC58302026F6D
:1000D6005011C58229F808E5F026F618F5F0E582F4
:1000E60036F622BBFE11C58229F808E225F0F5F0A6
:1000F600F218E23582F222F8E58229F582E5832AB2
:0D010600F58374019325F0F5F0E4933822A1
:10011300F8BB0111E58229F582E5833AF583E8F01E
:10012300E5F0A3F0225009E92582C8F608A6F022DB
:0D013300BBFE09E92582C8F2E5F008F222C2
:10014000F5F0C582A4C582C5F0C583A42583F583D7
:01015000228C
:10015100BB010789828A830202AD5005E9F80202D8
:100161009BBBFE05E9F80202BF89828A830202D1A4
:10017100BB011A89828A83D0F0D0E0F8D0E0F9D0AF
:10018100E0FAD0E0FBE8C0E0C0F00202B65016E9A8
:10019100F8D083D082D0E0F9D0E0FAD0E0FBC08281
:1001A100C0830202A4BBFE16E9F8D083D082D0E05E
:0F01B100F9D0E0FAD0E0FBC082C0830202C8227E
:1001C000BB010DE58229F582E5833AF5830202AD94
:1001D0005007E92582F802029BBBFE07E92582F859
:1001E0000202BFE58229F582E5833AF5830202D156
:1001F000BB0120E58229F582E5833AF583D0F0D072
:10020000E0F8D0E0F9D0E0FAD0E0FBE8C0E0C0F0E0
:100210000202B65018E92582F8D083D082D0E0F9E6
:10022000D0E0FAD0E0FBC082C0830202A4BBFE187B
:10023000E92582F8D083D082D0E0F9D0E0FAD0E08E
:09024000FBC082C0830202C82247
:10024900D083D082F8E4937012740193700DA3A344
:1002590093F8740193F5828883E473740293686058
:06026900EFA3A3A380DF58
:100555008E308F317E007F008F828E83E0FCA3E09A
:10056500FD4C7003FEFF228D828C83A3A3E0FAA3CA
:10057500E0FBC39531EA95305008CEECCECFEDCFF8
:1005850080D6C3EB9531F533EA9530F532C3E533C3
:100595009410E532940050198D828C83E0FBA3E022
:1005A5008F828E83CBF0A3EBF0ED2404FFE43CFEB9
:1005B5002274FC2533F53374FF3532F5328D828C88
:1005C50083A3A3F0A3E533F0ED2404FFE43CFEEFA1
:1005D5002533FFEE3532FE8F82F583A3A3E530F098
:0C05E500A3E531F0EF2404FFE43EFE2209
:1002DD00EF4E70030203DF900002E07002A3E070A6
:1002ED00030203DFCDEFCDCCEECCED24FCFDEC34E1
:1002FD00FFFC753400753500853582853483E0FA51
:10030D00A3E08A36F53745366011D3E5379FE536DC
:10031D009E500885363485373580DDE537453660A6
:10032D004A8D828C83A3A3E0FAA3E02FFFEA3EFE61
:10033D00EF65377003EE653670318537828536830C
:10034D00A3A3E0FEA3E02404FFE43E8D828C83A3EF
:10035D00A38FF012026F853782853683E0FFA3E00D
:10036D008D828C83CFF0A3EFF0800B8D828C83E593
:10037D0036F0A3E537F0853582853483A3A3E0FEFF
:10038D00A3E02535FFEE3534CF2404CF3400FEEF46
:10039D006D7002EE6C70308D828C83A3A3E0FEA392
:1003AD00E02404FFE43E853582853483A3A38FF0DA
:1003BD0012026F8D828C83E0FFA3E0853582853438
:1003CD0083CFF0A3EFF022853582853483ECF0A343
:0303DD00EDF0221E
:1005FD00020A96E493A3F8E493A34003F68001F274
:10060D0008DFF48029E493A3F85407240CC8C333FE
:10061D00C4540F4420C8834004F456800146F6DFCD
:10062D00E4800B0102040810204080900A7AE47ED9
:10063D00019360BCA3FF543F30E509541FFEE493C2
:10064D00A360010ECF54C025E060A840B8E493A389
:10065D00FAE493A3F8E493A3C8C582C8CAC583CAB4
:10066D00F0A3C8C582C8CAC583CADFE9DEE780BE6C
:010A8A00006B
:10026F00C5F0F8A3E028F0C5F0F8E582158270021A
:06027F001583E038F022B7
:10028500A3F8E0C5F025F0F0E5821582700215832C
:06029500E0C838F0E82289
:09029B00E6FB08E6FA08E6F92288
:0902A400EBF608EAF608E9F6227F
:0902AD00E0FBA3E0FAA3E0F92252
:0902B600EBF0A3EAF0A3E9F02249
:0902BF00E2FB08E2FA08E2F92270
:0902C800EBF208EAF208E9F22267
:0C02D100E493FB740193FA740293F92289
:0B0A8B00480000000000000000000018
:1007DC00C3ED9428EC94005004E4FEFF22EF4E701D
:1007EC0008FE7F01ED1D70011C900000EEF0A3EFE0
:1007FC00F0A3ECF0A3EDF0900000E0FEA3E0FFF519
:10080C00828E83E4F0A3F0ED24FCFDEC34FF8F82A8
:0D081C008E83A3A3F0A3EDF07EFF7FFF22EB
:00000001FF
