:10051500120E38120DE70206E6120DA3EF12048142
:1005250005597705D17B064D7D06EE7E0575B70528
:10053500F0BB066CBD070DBE0593D7060FDB068B1A
:10054500DD072CDE05B2E7062EEB06AAED074BEE1E
:100555000000051EE4FFFE120D52E4FFFE120A62C2
:100565000509E5097002050814240AF8763080A902
:100575007F017E00120D527F017E00120A6205097D
:10058500E5097002050814240AF87631808B7F028C
:100595007E00120D527F027E00120A620509E509EE
:1005A5007002050814240AF8763202051E7F037EC0
:1005B50000120D527F037E00120A620509E50970DB
:1005C50002050814240AF8763302051E7F047E000E
:1005D500120D527F047E00120A620509E5097002B8
:1005E500050814240AF8763402051E7F057E0012DC
:1005F5000D527F057E00120A620509E509700205A4
:100605000814240AF8763502051E7F067E00120DB1
:10061500527F067E00120A620509E5097002050887
:1006250014240AF8763602051E7F077E00120D5245
:100635007F077E00120A620509E5097002050814A4
:10064500240AF8763702051E7F087E00120D527FB8
:10065500087E00120A620509E509700205081424DE
:100665000AF8763802051E7F097E00120D527F09B1
:100675007E00120A620509E5097002050814240ABC
:10068500F8763902051E7F0A7E00120D527F0A7E1A
:1006950000120A620509E5097002050814240AF822
:1006A500762E02051E7F0B7E00120D527F0B7E00FB
:1006B500120A620509E5097002050814240AF8768C
:1006C5002A0509E5097002050814240AF876317B24
:1006D500007A00790A12076A8B1E8A1F8920120C7C
:1006E5008CE4F508F50902051E7F0C7E00120D52FB
:1006F5007F0C7E00120A620509E5097002050814DF
:10070500240AF8762B02051E7F0D7E00120D527FFE
:100715000D7E00120A620509E50970020508142418
:100725000AF8762D02051E7F0E7E00120D527F0EF1
:100735007E00120A620509E5097002050814240AFB
:10074500F8762A02051E7F0F7E00120D527F0F7E5E
:1007550000120A620509E5097002050814240AF861
:05076500762F02051EC5
:100E7100758CFC758A66D28C308DFDC28CC28DEF6B
:090E81001F70011E144E70E822DE
:100DA30075A00FE5A0540FF521640F601D7F147E1D
:100DB30000120E71E521640F6010E5A0540FF521B8
:100DC30044F0F5A0E5A054F0F52275A00FE5A0547A
:100DD3000F640F60097F147E00120E7180EFE5210E
:030DE3002522FFC7
:010DE60022EA
:100A6200EE6003020B03EFB410004003020B03908D
:100A72000A78F8282873020AA8020AAC020AB0020D
:100A82000AB4020AB8020ABC020AC0020AC4020A72
:100A9200C8020ACE020AD4020ADA020AE0020AE90B
:100AA200020AF2020AFBD280801ED2808020D2800B
:100AB2008022D2808024D2808026D280802BD28055
:100AC2008030D2808035C280D2818016C280D281AD
:100AD2008019C280D281801CC280D281801FC280D4
:100AE200C281D282D28322C280C281D282C28322B6
:100AF200C280C281C282D28322C280C281C282C229
:020B020083224C
:100DE700C2807FC87E00120E71C281D2807FC87E0A
:100DF70000120E71C282D2817FC87E00120E71C2AC
:0D0E070083D2827FC87E00120E71D283223A
:100B900000003E5149453E00000000427F400000F9
:100BA000000042615149460000002141454B32009E
:100BB00000001814127F1000000027454545390039
:100BC00000003C4A4949300000000101710D03005A
:100BD00000003649494936000000064949291E00EF
:100BE0000000000040000000000014141414140061
:100BF000000008083E08080000000808080808006F
:100C00000000221408142200000008082A08080026
:060EC3000175B801764044
:100E1400E4FE7D80FBFAEF54018DF0A42EFEEDC3B9
:100E240013FDEFC313FF0BBB00010AEB64084A7008
:030E3400E5AF0621
:010E37002298
:0C0E55000575AF75120E61757640AF7622
:100E6100C284C286C285D284120E148F90C284229B
:100EB300C284D286C285D284120E148F90C2842239
:100CF700E4F523F524E4F521F522900000E4FF1242
:100D07000EB3E576B47F03120E550576A3E582642C
:100D170008458370E80522E52270020521C394087F
:100D2700E5216480948040D20524E52470020523E0
:100D3700C39408E5236480948040BA7575B8AF758D
:0B0D4700120E61757640AF76020E615F
:100E3800C2B5D2B4D2877F3F120E617FC0120E6155
:0D0E48007FB8120E617F40120E61020CF7A0
:040D52008E268F2733
:100D5600E4F528F529E527AE267803C333CE33CE4E
:100D6600D8F92490F582740B3EF583E5822529F5A2
:100D760082E5833528F583E493FF120EB3E576B456
:100D86007F05120E55800205760529E529700205B4
:0C0D960028C39408E5286480948040B9CC
:010DA200222E
:060C8C008B218A2289235E
:100C9200E576D3944040020575AF75120E61AB2123
:100CA200AA22A92312041E75F008A4FFC374809F10
:100CB200F576FF120E61AB21AA22A92312041EF5BA
:100CC2002585F024D3E5259400E52494004025E50C
:100CD2002525E0FFE52433AB21AA22A9238F82F543
:100CE20083120449FFAEF0120D52E525152570D48A
:040CF200152480D075
:010CF60022DB
:100E9F000000000000000000000000000000000043
:040EAF00000000003F
:1009A1008E3A8F3BAB21AA22A923754120AD25ACFC
:0109B1002421
:0A09B2008B3C8A3D893E8C3F8D404E
:1009BC00E4F542F543C3E5439540E53F6480F8E533
:1009CC00426480984003020A5DAB3CAA3DA93E8577
:1009DC00438285428312038765417067E543240196
:1009EC00F545E43542F544C3E5459540E53F648063
:1009FC00F8E544648098502BAB3CAA3DA93E854554
:100A0C0082854483120387FFE54524FFFDE54434CA
:100A1C00FF8D82F583EF1203B40545E54570C805DB
:100A2C004480C4E543154370021542AB3CAA3DA972
:100A3C003EE54015407002153F14F582853F83E476
:100A4C001203B40543E54360030209C105420209E0
:050A5C00C1AE3FAF40F8
:010A61002272
:100C1000E53E254FF9E53D354EFAC3E551954FCFF9
:0B0C2000E550954ECF2401FDE43FFCA1
:0A0C2B008B568A5789588C598D5A50
:100C3500E4F55BF55CF55DF55EC3E55E955AE55952
:100C45006480F8E55D6480985038AB56AA57A9587A
:100C5500855E82855D83120387FB3395E0FAAE5B83
:100C6500AF5C7C007D0A1203D6EF2BFFEE3ACF2452
:100C7500D0F55CEF34FFF55B055EE55E70BB055DA9
:060C850080B7AE5BAF5C1E
:010C8B002246
:0A08AB008E568F578B588A59895AD0
:1008B500785D7C007D007BFF7A0E799F7E007F143A
:1008C500120361E4F571F572F573F574C3E55664C9
:1008D500809480502FAB58AA59A95A055CE55CAEA7
:1008E5005B7002055B14F5828E83743C1203B4AE13
:1008F50056AF577CFF7DFF1203D68E568F57757303
:1009050000757401D3E5579400E5566480948040E2
:100915002FAE56AF577C007D0A1203E80572E572CB
:10092500700205711425E0245DF8A60408A605AE3D
:1009350056AF577C007D0A1203E88E568F5780C448
:10094500D3E5729400E57164809480402EE57215BC
:1009550072700215711425E0245DF808E62430FF55
:10096500AB58AA59A95A055CE55CAC5B7002055BFE
:1009750014F5828C83EF1203B480C5E5744573606A
:100985001AAB58AA59A95A055CE55CAE5B7002051D
:0B0995005B14F5828E83743E1203B4E5
:0109A0002234
:10000300AB21AA22A923852441852542AD27AC260D
:0A0013008B3C8A3D893E8C3F8D40F6
:10001D00E4F547F548F549F54A854082853F831259
:10002D000387F54DE4F54EF54FF550F551F554F5C3
:10003D0055E54024FFF551E53F34FFF550854082ED
:10004D00853F8374201203B4E4F54EF54F8550437C
:10005D00855144AB3CAA3DA93E854482854383121C
:10006D000387FFD3648094B95012C3EF648094B0BA
:10007D00400AE544154470DB154380D7E54424015F
:10008D00F54FE43543F54EE54465517004E54365A0
:10009D00506063E5554554AB3C600C120C107CFF71
:1000AD007DFF1203D68003120C108E478F48E55545
:1000BD0045546010E54F154F7002154E0551E55131
:1000CD0070020550854E45854F46D3E5469551E561
:1000DD00506480F8E545648098501BAB3CAA3DA95F
:1000ED003E85468285458374201203B40546E54658
:1000FD0070D8054580D4854E52854F53E540240177
:10010D00F54FE4353FF54EE54224FFF551E5413419
:10011D00FFF550E4F554F555AB3CAA3DA93E854F8E
:10012D0082854E83120387643C704C054FE54F70FA
:10013D0002054E755400755501854E43F544C3E5D2
:10014D00449542E5416480F8E5436480985063AB83
:10015D003CAA3DA93E854482854383120387B43E64
:10016D000CE54424FFF551E54334FFF5500544E516
:10017D004470CB054380C7854E43854F44AB3CAAA5
:10018D003DA93E854482854383120387FFD3648056
:10019D0094B95012C3EF648094B0400A0544E5440D
:1001AD0070DB054380D7E54424FFF551E54334FF6B
:1001BD00F550E544654F7004E543654E6063E555C4
:1001CD004554AB3C600C120C107CFF7DFF1203D626
:1001DD008003120C108E498F4AE55545546010E589
:1001ED004F154F7002154E0551E5517002055085A2
:1001FD004E45854F46D3E5469551E5506480F8E56B
:10020D0045648098501BAB3CAA3DA93E854682852E
:10021D00458374201203B40546E54670D805458024
:10022D00D4E54D24D6602924FD601624FE602E24CD
:10023D00047039E548254AF54CE5473549F54B80BD
:10024D002BC3E548954AF54CE5479549F54B801C80
:10025D00AC49AD4AAE47AF481203D6800BAC49ADA1
:10026D004AAE47AF481203E88E4B8F4CAB3CAA3DCC
:10027D00A93E85525B85535CAF4CAE4B1208ABAEBD
:03028D004BAF4C28
:01029000224B
:06076A008B218A22892385
:10077000120E8A8E248F25E4F528F529F53AF53BEB
:10078000F526F527C3E5279525E5246480F8E526B9
:100790006480985032AB21AA22A92385278285261E
:1007A00083120387FF642A6004EFB42F1012000342
:1007B0001209A18E248F2574FFF526F5270527E55C
:1007C0002770C1052680BDE4F526F527C3E52795EA
:1007D00025E5246480F8E5266480985032AB21AA90
:1007E00022A923852782852683120387FF642B6035
:1007F00004EFB42D101200031209A18E248F25746A
:10080000FFF526F5270527E52770C1052680BDC31E
:10081000E53A648094805011752800752901C3E47D
:10082000953BF53BE4953AF53A752600752701E5C9
:100830003B453A6030AE3AAF3B7C007D0A1203E89C
:10084000E52725E0242AF8A60408A605AE3AAF3B22
:100850007C007D0A1203E88E3A8F3B0527E527705E
:10086000CE052680CAE5276401452670120527E5D6
:1008700027700205261425E0242AF8E4F608F6E598
:1008800029452860130527E527700205261425E071
:10089000242AF8760008760DE52724FFF52BE526B7
:0A08A00034FFF52A7B007A00792A64
:0108AA00222B
:03000000020B04EC
:0C0B0400787FE4F6D8FD758176020B4B7B
:10029100E709F608DFFA8046E709F208DFFA803E4F
:1002A10088828C83E709F0A3DFFA8032E309F6083C
:1002B100DFFA8078E309F208DFFA807088828C83A4
:1002C100E309F0A3DFFA806489828A83E0A3F60858
:1002D100DFFA805889828A83E0A3F208DFFA804C32
:1002E10080D280FA80C680D4806980F28033801009
:1002F10080A680EA809A80A880DA80E280CA803372
:1003010089828A83ECFAE493A3C8C582C8CCC583E9
:10031100CCF0A3C8C582C8CCC583CCDFE9DEE780B9
:100321000D89828A83E493A3F608DFF9ECFAA9F038
:10033100EDFB2289828A83ECFAE0A3C8C582C8CC8E
:10034100C583CCF0A3C8C582C8CCC583CCDFEADEA7
:10035100E880DB89828A83E493A3F208DFF980CC09
:1003610088F0EF60010E4E60C388F0ED2402B40402
:100371000050B9F582EB2402B4040050AF232345A9
:0603810082239002E173EB
:10038700BB010CE58229F582E5833AF583E022502B
:1003970006E92582F8E622BBFE06E92582F8E22275
:0D03A700E58229F582E5833AF583E493228F
:1003B400F8BB010DE58229F582E5833AF583E8F07F
:1003C400225006E92582C8F622BBFE05E92582C82B
:0203D400F22213
:1003D600EF8DF0A4A8F0CF8CF0A428CE8DF0A42E3B
:0203E600FE22F5
:1003E800C2D5EC30E709B2D5E4C39DFDE49CFCEE30
:1003F80030E715B2D5E4C39FFFE49EFE1204C0C3E4
:10040800E49DFDE49CFC80031204C030D507C3E4DE
:060418009FFFE49EFE229E
:10041E00BB010A89828A83E0F5F0A3E022500687A9
:10042E00F009E71922BBFE07E3F5F009E31922896B
:0B043E00828A83E493F5F0740193229E
:10044900BB0110E58229F582E5833AF583E0F5F0F1
:10045900A3E0225009E92582F886F008E622BBFECE
:100469000AE92582F8E2F5F008E222E5832AF58314
:08047900E993F5F0A3E99322D9
:10048100D083D082F8E4937012740193700DA3A30A
:1004910093F8740193F5828883E47374029368601E
:0604A100EFA3A3A380DF1E
:100E8A00E4FFFE1204A7600C0FEF70010E09E9706F
:050E9A00F20A80EF22C6
:100B1000020515E493A3F8E493A34003F68001F2E1
:100B200008DFF48029E493A3F85407240CC8C333E6
:100B3000C4540F4420C8834004F456800146F6DFB5
:100B4000E4800B0102040810204080900EC3E47E74
:100B5000019360BCA3FF543F30E509541FFEE493AA
:100B6000A360010ECF54C025E060A840B8E493A371
:100B7000FAE493A3F8E493A3C8C582C8CAC583CA9C
:100B8000F0A3C8C582C8CAC583CADFE9DEE780BE54
:010EC9000028
:1004A700BB010689828A83E0225002E722BBFE0253
:0904B700E32289828A83E4932286
:1004C000BC000BBE0029EF8DF084FFADF022E4CC20
:1004D000F875F008EF2FFFEE33FEEC33FCEE9DECE9
:1004E000984005FCEE9DFE0FD5F0E9E4CEFD22ED2F
:1004F000F8F5F0EE8420D21CFEADF075F008EF2F79
:10050000FFED33FD4007985006D5F0F222C398FD69
:050510000FD5F0EA2206
:00000001FF
