:10062200121115E4F50BF50C1210D1EF1205A40608
:10063200657706DD7B07597D07D97E0681B706FC03
:10064200BB0778BD07F8BE069FD7071BDB0797DD00
:100652000817DE06BEE7073AEB07B6ED0836EE00EE
:1006620000062AE4FFFE121033E4FFFE120B15050A
:100672000CE50C7002050B14240DF8763080A97F6E
:10068200017E001210337F017E00120B15050CE56E
:100692000C7002050B14240DF87631808B7F027EDC
:1006A200001210337F027E00120B15050CE50C7050
:1006B20002050B14240DF8763202062A7F037E000F
:1006C2001210337F037E00120B15050CE50C70022D
:1006D200050B14240DF8763302062A7F047E0012DD
:1006E20010337F047E00120B15050CE50C70020519
:1006F2000B14240DF8763402062A7F057E001210B0
:10070200337F057E00120B15050CE50C7002050BFC
:1007120014240DF8763502062A7F067E0012103365
:100722007F067E00120B15050CE50C7002050B14FA
:10073200240DF8763602062A7F077E001210337FD8
:10074200077E00120B15050CE50C7002050B142434
:100752000DF8763702062A7F087E001210337F08D2
:100762007E00120B15050CE50C7002050B14240D0E
:10077200F8763802062A7F097E001210337F097E3E
:1007820000120B15050CE50C7002050B14240DF874
:10079200763902062A7F0A7E001210337F0A7E0013
:1007A200120B15050CE50C7002050B14240DF876DE
:1007B2002E02062A7F0B7E001210337F0B7E001260
:1007C2000B157B007A00790D1212388B1D8A1E8957
:1007D2001F12095802062A7F0C7E001210337F0C6A
:1007E2007E00120B15050CE50C7002050B14240D8E
:1007F200F8762B02062A7F0D7E001210337F0D7EC3
:1008020000120B15050CE50C7002050B14240DF8F3
:10081200762D02062A7F0E7E001210337F0E7E0096
:10082200120B15050CE50C7002050B14240DF8765D
:100832002A02062A7F0F7E001210337F0F7E0012DB
:100842000B15050CE50C7002050B14240DF8762F20
:0308520002062A71
:04117D007FE87E0386
:10118100758CFC758A66D28C308DFDC28CC28DEF58
:091191001F70011E144E70E822CB
:1011150012119AC28012117DC281D28012117DC234
:1011250082D28112117DC283D28212117DD2837F38
:06113500E87E03021181B7
:1010D10075A00FE5A0540FF520640F601D7F147EED
:1010E10000121181E520640F6010E5A0540FF52076
:1010F10044F0F5A0E5A054F0F52175A00FE5A0544A
:101101000F640F60097F147E0012118180EFE520CA
:031111002521FF96
:0111140022B8
:100B1500EE6003020BB6EFB410004003020BB69073
:100B25000B2BF8282873020B5B020B5F020B630289
:100B35000B67020B6B020B6F020B73020B77020B39
:100B45007B020B81020B87020B8D020B93020B9C20
:100B5500020BA5020BAED280801ED2808020D280EF
:100B65008022D2808024D2808026D280802BD280A1
:100B75008030D2808035C280D2818016C280D281F9
:100B85008019C280D281801CC280D281801FC28020
:100B9500C281D282D28322C280C281D282C2832202
:100BA500C280C281C282D28322C280C281C282C275
:020BB500832299
:100D640000003E5149453E00000000427F40000023
:100D7400000042615149460000002141454B3200C8
:100D840000001814127F1000000027454545390063
:100D940000003C4A4949300000000101710D030084
:100DA40000003649494936000000064949291E0019
:100DB400000000004000000000001414141414008B
:100DC400000008083E080800000008080808080099
:100DD4000000221408142200000008082A08080051
:0611EA00017CB8017D400C
:10113B00E4FE7D80FBFAEF54018DF0A42EFEEDC38F
:10114B0013FDEFC313FF0BBB00010AEB64084A70DE
:03115B00E5AF06F7
:01115E00226E
:0C11B700057CAF7C1211C3757D40AF7D3C
:1011C300C284C286C285D28412113B8F90C284220C
:10122800C284D286C285D28412113B8F90C2842296
:100F8600E4F522F523E4F520F521900000E4FF12B4
:100F96001228E57DB47F031211B7057DA3E58264AF
:100FA60008458370E80521E52170020520C39408F1
:100FB600E5206480948040D20523E5237002052253
:100FC600C39408E5226480948040BA757CB8AF7CEF
:0B0FD6001211C3757D40AF7D0211C3F6
:10119A00C2B5D2B4D2877F3F1211C37FC01211C326
:0D11AA007FB81211C37F401211C3020F86DF
:041033008E258F2651
:10103700E4F527F528E526AE257803C333CE33CE6E
:10104700D8F92464F582740D3EF583E5822528F5E9
:1010570082E5833527F583E493FF121228E57DB4F3
:101067007F051211B78002057D0528E52870020566
:0C10770027C39408E5276480948040B9EA
:01108300224A
:060958008B208A21892298
:10095E00E4F523F524AB20AA21A922121200C3E547
:10096E00249FE5239E4003020A46AB20AA21A9221A
:10097E008524828523831203FA24D6B414004003FF
:10098E00020A3B90099F75F003A4C58325F0C58329
:10099E0073020A2E020A22020A3B020A28020A16D1
:1009AE00020A340209DB0209E00209E60209EC023E
:1009BE0009F20209F80209FE020A04020A0A020AF0
:1009CE0010020A3B020A3B020A3B020A1CE4FFFE2B
:1009DE0080587F017E0080527F027E00804C7F0314
:1009EE007E0080467F047E0080407F057E00803A38
:1009FE007F067E0080347F077E00802E7F087E007B
:100A0E0080287F097E0080227F0A7E00801C7F0B5B
:100A1E007E0080167F0C7E0080107F0D7E00800A87
:100A2E007F0E7E0080047F0F7E001210330524E5BA
:080A3E00247002052302096384
:010A4600228D
:040F25008E6C8F6DD2
:100F29007F097E00120BB7AA06A907756E018A6FA1
:100F39008970E56DAE6C7803C333CE33CED8F9FF33
:100F4900120BB7AA06A9077B01C003C002C001ABF7
:100F59006EAA6FA970120555AB6EAA6FA9709000A1
:100F690003E56C856DF0120508900005E475F0083D
:0C0F7900120508900007E4F5F0120508CE
:010F85002249
:1011D3008B798A7A897B120535AE02AF01120855E5
:0711E300AE7AAF7B02085554
:100A47008B5A8A5B895C9000071204642401FFE4D7
:100A570035F0FE9000051204646F7003EE65F070C8
:100A670053E92405F9E43AFA12043925E0FFE5F0E1
:100A7700338FF01204E9AB5AAA5BA95C900003120A
:100A87000464FDACF0900005120464FFAEF012049C
:100A970027AC06AD07120535AE02AF01120DE4AA69
:100AA70006A9077B01C003C002C001AB5AAA5BA914
:100AB7005C120555E55E455F455D6042AB5AAA5B32
:100AC700A95C900003120464FFAEF0C006C0079053
:100AD7000003120464FDACF0900007120464FFAE3B
:100AE700F0120427120535EF29FFEE3AA807FC7D1F
:100AF70000AB5DAA5EA95FD007D0061203BBAB5A55
:0E0B0700AA5BA95C900007E475F00102049C53
:100E5C008B608A61896290000712046445F070030C
:100E6C00FEFF22E564456545636046AB60AA61A957
:100E7C0062900003120464FFAEF0C006C00790003D
:100E8C0003120464FDACF090000774FFF5F012043B
:100E9C009CAFF0FE120427120535EF29FFEE3AFA4B
:100EAC00A9077B00A865AC64AD63D007D00612031C
:060EBC00BB7E007F012255
:100EC2008B668A678968900007120464FDACF04C57
:100ED2007003FEFF22E56A456B45696041AB66AA75
:100EE20067A968900003120464FFAEF0C006C00751
:100EF200ED24FFFFEC34FFFE900003120464FDAC0E
:100F0200F0120427120535EF29FFEE3AFAA9077B02
:100F120000A86BAC6AAD69D007D0061203BB7E0095
:030F22007F01222A
:0411F000022F0000CA
:100FE100AB31AA32A9331203E1FF1212155018AB2B
:100FF10031AA32A9331203E1600D74012533F533AF
:10100100E43532F53280D9853E42AB31AA32A9337B
:101011001203E1FD7007753EFFFE7FFF228D3E74D6
:10102100012533F533E43532F532AF3EEF3395E048
:02103100FE229D
:10115F00EF642A6003BF2F057E007F0222EF642B0E
:0E116F006003BF2D057E007F0122E4FEFF22FB
:020CDF008F493B
:100CE10075630075640075654EAB43AA44A945124E
:100CF1000E5C75630075640075654AAB43AA44A92F
:100D010045120E5CE54924D6603224FD601B24FEA9
:100D1100603D2404704CAF51AE50AD4FAC4EAB4D65
:100D2100AA4CA94BA84A02000AAB51AA50A94FA844
:100D31004EAF4DAE4CAD4BAC4A020006AF51AE507A
:100D4100AD4FAC4EAB4DAA4CA94BA84A0200FBAB30
:100D510051AA50A94FA84EAF4DAE4CAD4BAC4A1263
:020D610002048A
:010D6300226D
:10123800E4F52FF530F542F53E8B318A32893322B9
:100003000202D6E86480F8E933E83360110460F053
:10001300ED33EC337009E8FCE9FDEAFEEBFF220463
:1000230060DED3EB9FEA9EE99DE8C2E78CF0C2F75E
:1000330095F0400CE8CCF8E9CDF9EACEFAEBCFFB2A
:100043001202A185D0F05804700320D5B3E80470E0
:10005300075002B2D50202E092D5EC0460F7E4CC7B
:10006300C0E0C398F8603B94186008400DD0E0FBF3
:100073000202B8E4FBFAC9FC8028E830E406E4C9CC
:10008300FBE4CAFCE830E305E4C9CACBFCE8540747
:100093006010F8C3E913F9EA13FAEB13FBEC13FC52
:1000A300D8F130F52FC3E49CFCEF9BFFEE9AFEEDF5
:1000B30099FDD0E0FBEF4E4D4C701222DB030202A0
:1000C300DDEC2CFCEF33FFEE33FEED33FDED30E7DB
:1000D300EB0202B8EF2BFFEE3AFEED39FDD0E0FB69
:1000E30050130BBB00030202E0ED13FDEE13FEEF12
:0800F30013FFEC13FC0202B83C
:1000FB00EC4D6011E8497017ED33EC3304600DE4FF
:10010B00FCFFFEFD22E933E8330470F80202D6123D
:10011B0002A158046009E4CC24815006285009023E
:10012B0002E02840030202DDC0E0EB4A7044B980D4
:10013B0006D0E0FB0202CCEF4E701CBD8008EBFF3B
:10014B00EAFEE9FD80EBE98DF0A4FEE5F00201E4A7
:10015B00E9CDF9EAFEEBFFEF89F0A4FCE5F0CE89DF
:10016B00F0A42EFFE435F0CD89F0A42DFEE435F09C
:10017B008067EF4E7005BD80D780C3EF8BF0A4ACCA
:10018B00F0EE8BF0A42CFCE435F0F8EF8AF0A42C05
:10019B00E5F038FCE433CB8DF0A42CFCE5F03BF818
:1001AB00EE8AF0A42CFCE5F038F8E433CF89F0A408
:1001BB002CFCE5F038CF3400CE89F0A42FFFE5F00E
:1001CB003EFEE433C98DF0A42EFEE5F039CD8AF066
:1001DB00A42FFFE5F03EFEE43DFD33D0E0FB5007DE
:1001EB000BBB000F0202E0EC2CFCEF33FFEE33FEF7
:0601FB00ED33FD0202B825
:100201000202E0EC5D046005E8590470030202D6C5
:100211001202A1580460F6EC4860F2EC7004FDFE95
:10022100FF22C860DB2481C85009C39860025006D0
:100231000202DD9850CAF582E9294B4A7005AB826A
:100241000202CC75F0007C1A7880C3EF9BEE9AED28
:1002510099400DC3EF9BFFEE9AFEED99FDE842F048
:10026100DC23ACF0D0E0FFD0E0FED0E0FDAB82209B
:10027100E7101BEB60BAEC2CFCEF33FFEE33FEED25
:1002810033FD0202B8E803F830E705C0F075F0006D
:10029100EF2FFFEE33FEED33FD40B830E7C280AA09
:1002A100E9D2E7C933E833F892D5EDD2E7CD33ECA3
:0702B10033FC5002B2D5221C
:1002B800EC30E7100FBF000C0EBE00080DBD0004A7
:1002C8000BEB6014A2D5EB13FCED92E7FD2274FF53
:1002D800FCFDFEFF22E480F8A2D574FF13FC7D80AC
:0302E800E480EFC0
:03000000020C539C
:0C0C5300787FE4F6D8FD75817D020C9AD4
:1002EB00E709F608DFFA8046E709F208DFFA803EF5
:1002FB0088828C83E709F0A3DFFA8032E309F608E2
:10030B00DFFA8078E309F208DFFA807088828C8349
:10031B00E309F0A3DFFA806489828A83E0A3F608FD
:10032B00DFFA805889828A83E0A3F208DFFA804CD7
:10033B0080D280FA80C680D4806980F280338010AE
:10034B0080A680EA809A80A880DA80E280CA803317
:10035B0089828A83ECFAE493A3C8C582C8CCC5838F
:10036B00CCF0A3C8C582C8CCC583CCDFE9DEE7805F
:10037B000D89828A83E493A3F608DFF9ECFAA9F0DE
:10038B00EDFB2289828A83ECFAE0A3C8C582C8CC34
:10039B00C583CCF0A3C8C582C8CCC583CCDFEADE4D
:1003AB00E880DB89828A83E493A3F208DFF980CCAF
:1003BB0088F0EF60010E4E60C388F0ED2402B404A8
:1003CB000050B9F582EB2402B4040050AF2323454F
:0603DB00822390033B7336
:1003E100BB010689828A83E0225002E722BBFE021A
:0903F100E32289828A83E493224D
:1003FA00BB010CE58229F582E5833AF583E02250B8
:10040A0006E92582F8E622BBFE06E92582F8E22201
:0D041A00E58229F582E5833AF583E493221B
:10042700EF8DF0A4A8F0CF8CF0A428CE8DF0A42EE9
:02043700FE22A3
:10043900BB010A89828A83E0F5F0A3E0225006878E
:10044900F009E71922BBFE07E3F5F009E319228950
:0B045900828A83E493F5F07401932283
:10046400BB0110E58229F582E5833AF583E0F5F0D6
:10047400A3E0225009E92582F886F008E622BBFEB3
:100484000AE92582F8E2F5F008E222E5832AF583F9
:08049400E993F5F0A3E99322BE
:10049C00BB010DC58229C582C5833AC5830205CA35
:1004AC005011C58229F808E5F026F618F5F0E5821A
:1004BC0036F622BBFE11C58229F808E225F0F5F0CC
:1004CC00F218E23582F222F8E58229F582E5832AD8
:0D04DC00F58374019325F0F5F0E4933822C8
:1004E900BB010A89828A83F0E5F0A3F0225006F75E
:0F04F90009A7F01922BBFE06F3E5F009F319225B
:10050800F8BB0111E58229F582E5833AF583E8F025
:10051800E5F0A3F0225009E92582C8F608A6F022E2
:0D052800BBFE09E92582C8F2E5F008F222C9
:10053500BB010789828A830205F25005E9F80205A5
:10054500E0BBFE05E9F802060489828A83020616E5
:10055500BB011A89828A83D0F0D0E0F8D0E0F9D0C7
:10056500E0FAD0E0FBE8C0E0C0F00205FB5016E978
:10057500F8D083D082D0E0F9D0E0FAD0E0FBC08299
:10058500C0830205E9BBFE16E9F8D083D082D0E02E
:0F059500F9D0E0FAD0E0FBC082C08302060D224D
:1005A400D083D082F8E4937012740193700DA3A3E6
:1005B40093F8740193F5828883E4737402936860FA
:0605C400EFA3A3A380DFFA
:10121500EFC394094005EF940E4003BF2003D3802C
:0312250001C322E0
:10120000E4FFFE1203E1600C0FEF70010E09E970BC
:05121000F20A80EF224C
:100BB7008E718F727E007F008F828E83E0FCA3E0B0
:100BC700FD4C7003FEFF228D828C83A3A3E0FAA362
:100BD700E0FBC39572EA95715008CEECCECFEDCF0E
:100BE70080D6C3EB9572F574EA9571F573C3E57416
:100BF7009410E573940050198D828C83E0FBA3E079
:100C07008F828E83CBF0A3EBF0ED2404FFE43CFE50
:100C17002274FC2574F57474FF3573F5738D828C1B
:100C270083A3A3F0A3E574F0ED2404FFE43CFEEFF7
:100C37002574FFEE3573FE8F82F583A3A3E571F06C
:0C0C4700A3E572F0EF2404FFE43EFE225F
:100DE4008E528F538C548D55E5534552600A9000B2
:100DF40002E07002A3E07004E4FEFF2285525685EF
:100E04005357E55724FCF557E55634FFF556AF55CF
:100E1400AE54120BB78E588F59EF4E7003FEFF225B
:100E2400855782855683A3A3E0FEA3E0FFC39555AF
:100E3400EE955450048E548F55AE54AF55AA52A912
:100E4400537B01A859AC587D011203BBAF53AE527A
:080E5400120855AE58AF5922F7
:10085500EF4E7003020957900002E07002A3E070AA
:1008650003020957CDEFCDCCEECCED24FCFDEC34E5
:10087500FFFC757500757600857682857583E0FACF
:10088500A3E08A77F57845776011D3E5789FE5771A
:100895009E500885777585787680DDE578457760A3
:1008A5004A8D828C83A3A3E0FAA3E02FFFEA3EFEE4
:1008B500EF65787003EE657770318578828577838B
:1008C500A3A3E0FEA3E02404FFE43E8D828C83A372
:1008D500A38FF01205CA857882857783E0FFA3E0B0
:1008E5008D828C83CFF0A3EFF0800B8D828C83E516
:1008F50077F0A3E578F0857682857583A3A3E0FE7E
:10090500A3E02576FFEE3575CF2404CF3400FEEF46
:100915006D7002EE6C70308D828C83A3A3E0FEA314
:10092500E02404FFE43E857682857583A3A38FF0DA
:100935001205CA8D828C83E0FFA3E08576828575DA
:1009450083CFF0A3EFF022857682857583ECF0A343
:03095500EDF022A0
:100C5F00020622E493A3F8E493A34003F68001F283
:100C6F0008DFF48029E493A3F85407240CC8C33396
:100C7F00C4540F4420C8834004F456800146F6DF65
:100C8F00E4800B01020408102040809011EAE47EFA
:100C9F00019360BCA3FF543F30E509541FFEE4935A
:100CAF00A360010ECF54C025E060A840B8E493A321
:100CBF00FAE493A3F8E493A3C8C582C8CAC583CA4C
:100CCF00F0A3C8C582C8CAC583CADFE9DEE780BE04
:0111F40000FA
:1005CA00C5F0F8A3E028F0C5F0F8E58215827002BC
:0605DA001583E038F02259
:0905E000E6FB08E6FA08E6F92240
:0905E900EBF608EAF608E9F62237
:0905F200E0FBA3E0FAA3E0F9220A
:0905FB00EBF0A3EAF0A3E9F02201
:09060400E2FB08E2FA08E2F92227
:09060D00EBF208EAF208E9F2221E
:0C061600E493FB740193FA740293F92240
:0B11F5004800000000000000000000A7
:10108400C3ED9428EC94005004E4FEFF22EF4E706C
:1010940008FE7F01ED1D70011C900000EEF0A3EF2F
:1010A400F0A3ECF0A3EDF0900000E0FEA3E0FFF568
:1010B400828E83E4F0A3F0ED24FCFDEC34FF8F82F8
:0D10C4008E83A3A3F0A3EDF07EFF7FFF223B
:00000001FF
