:040DAC0032333300AB
:100CE800120C9E120C1C8F0812033A8E098F0A12DE
:100CF8000664BF3DEE7BFF7A0D79AC12045180FE8D
:040D08007FE87E03FF
:100D0C00758CFC758A66D28C308DFDC28CC28DEFD1
:090D1C001F70011E144E70E82244
:100C9E00120D25C280120D08C281D280120D08C21B
:100CAE0082D281120D08C283D282120D08D2837FA6
:060CBE00E87E03020D0CAC
:100C1C0075A00FE5A0540FF510640F601D7F147EB6
:100C2C0000120D0CE510640F6010E5A0540FF510C8
:100C3C0044F0F5A0E5A054F0F51175A00FE5A05413
:100C4C000F640F60097F147E00120D0C80EFE5100D
:030C5C002511FF60
:010C5F002272
:10066400EE6003020759EFB41000400302075990EB
:10067400067AF82828730206AA0206B50206C00202
:1006840006CB0206D60206E10206EC0206F70207D2
:100694000202070D02071802072302072E02073978
:1006A40002074402074FD280D281D282D2837F30A4
:1006B40022D280D281D282C2837F3122D280D2815F
:1006C400C282D2837F3222D280D281C282C2837F0D
:1006D4003322D280C281D282D2837F3422D280C29A
:1006E40081D282C2837F3522D280C281C282D283E8
:1006F4007F3622D280C281C282C2837F3722C280E7
:10070400D281D282D2837F3822C280D281D282C265
:10071400837F3922C280D281C282D2837F2E22C2B9
:1007240080D281C282C2837F3D22C280C281D282B2
:10073400D2837F2B22C280C281D282C2837F2D22A8
:10074400C280C281C282D2837F2A22C280C281C275
:0607540082C2837F2F2208
:1009500000003E5149453E00000000427F4000003B
:10096000000042615149460000002141454B3200E0
:1009700000001814127F100000002745454539007B
:1009800000003C4A4949300000000101710D03009C
:1009900000003649494936000000064949291E0031
:1009A000000000004000000000002828282828003F
:1009B000000010107C10100000001010101010002B
:1009C00000004428102844000000101054101000AB
:060D8A000144B8014540E0
:100CC400E4FE7D80FBFAEF54018DF0A42EFEEDC30B
:100CD40013FDEFC313FF0BBB00010AEB64084A705A
:030CE400E5AF0673
:010CE70022EA
:0C0D42000544AF44120D4E754540AF450E
:100D4E00C284C286C285D284120CC48F90C2842201
:100D9C00C284D286C285D284120CC48F90C28422A3
:100B7400E4F512F513E4F510F511900000E4FF120A
:100B84000D9CE545B47F03120D420545A3E582643F
:100B940008458370E80511E51170020510C3940837
:100BA400E5106480948040D20513E51370020512A9
:100BB400C39408E5126480948040BA7544B8AF4485
:0B0BC400120D4E754540AF45020D4E6E
:100D2500C2B5D2B4D2877F3F120D4E7FC0120D4E91
:0D0D35007FB8120D4E7F40120D4E020B7460
:060C60008B158A168917AE
:100C6600E4F518F519AB15AA16A917851982851882
:100C7600831200F9FF120D9CE545B47F05120D4263
:100C8600800205450519E51970020518C39408E5A3
:070C9600186480948040CE39
:010C9D002234
:10033A00EF1202A303727703A97B03E17D04197EFE
:10034A00037FB703B7BB03EFBD0427BE038DD703F3
:10035A00C5DB03FDDD0435DE039BE703D3EB040BAA
:10036A00ED0443EE000004507BFF7A097950120C29
:10037A0060E4FEFF227BFF7A097958120C607E0046
:10038A007F01227BFF7A097960120C607E007F026E
:10039A00227BFF7A097968120C607E007F03227B38
:1003AA00FF7A097970120C607E007F04227BFF7A43
:1003BA00097978120C607E007F05227BFF7A097921
:1003CA0080120C607E007F06227BFF7A09798812F0
:1003DA000C607E007F07227BFF7A097990120C60FD
:1003EA007E007F08227BFF7A097998120C607E00D2
:1003FA007F09227BFF7A0979A0120C607E007F0AAE
:10040A00227BFF7A0979A8120C607E007F0B227B7F
:10041A00FF7A0979B0120C607E007F0C227BFF7A8A
:10042A000979B8120C607E007F0D227BFF7A097968
:10043A00C0120C607E007F0E227BFF7A0979C812F7
:07044A000C607E007F0F2211
:060451008B108A118912D4
:10045700E4F513F514AB10AA11A912120D75C3E533
:10046700149FE5139E4003020560AB10AA11A91261
:100477008514828513831200F924D6B4140040032F
:1004870002055590049875F003A4C58325F0C5832C
:100497007302054402053402055502053C02052492
:1004A70002054C0204D40204DC0204E40204EC0258
:1004B70004F40204FC02050402050C0205140205FB
:1004C7001C02055502055502055502052C7BFF7ACE
:1004D70009795080767BFF7A097958806E7BFF7A9D
:1004E70009796080667BFF7A097968805E7BFF7A8D
:1004F70009797080567BFF7A097978804E7BFF7A7D
:1005070009798080467BFF7A097988803E7BFF7A6C
:1005170009799080367BFF7A097998802E7BFF7A5C
:100527000979A080267BFF7A0979A8801E7BFF7A4C
:100537000979B080167BFF7A0979B8800E7BFF7A3C
:100547000979C080067BFF7A0979C8120C60051407
:09055700E5147002051302045CB6
:010560002278
:040AAE008E348F35BE
:100AB2007F097E00120828AA06A9077536018A371F
:100AC2008938E535C4F8540FC868FFE534C454F0DA
:100AD20048FE120828AA06A9077B01C003C002C06B
:100AE20001AB36AA37A938120254AB36AA37A93855
:100AF200900003E5348535F0120207900005E47595
:0E0B0200F010120207900007E4F5F01202074F
:010B100022C2
:100D5E008B418A428943120234AE02AF0112056101
:070D6E00AE42AF4302056134
:10075A008B228A2389249000071201632401FFE473
:10076A0035F0FE9000051201636F7003EE65F070BC
:10077A0053E92405F9E43AFA12013825E0FFE5F0D5
:10078A00338FF01201E8AB22AA23A92490000312A6
:10079A000163FDACF0900005120163FFAEF0120197
:1007AA0026AC06AD07120234AE02AF011209D0AA76
:1007BA0006A9077B01C003C002C001AB22AA23A974
:1007CA0024120254E526452745256042AB22AA2376
:1007DA00A924900003120163FFAEF0C006C007907F
:1007EA000003120163FDACF0900007120163FFAE33
:1007FA00F0120126120234EF29FFEE3AA807FC7D17
:10080A0000AB25AA26A927D007D0061200D3AB220F
:0E081A00AA23A924900007E475F00102019BB7
:100A48008B288A29892A90000712016345F07003D0
:100A5800FEFF22E52C452D452B6046AB28AA29A987
:100A68002A900003120163FFAEF0C006C007900091
:100A780003120163FDACF090000774FFF5F012015A
:100A88009BAFF0FE120126120234EF29FFEE3AFA6C
:100A9800A9077B00A82DAC2CAD2BD007D0061200DF
:060AA800D37E007F012255
:100B11008B2E8A2F8930900007120163FDACF04CB7
:100B21007003FEFF22E532453345316041AB2EAA09
:100B31002FA930900003120163FFAEF0C006C00779
:100B4100ED24FFFFEC34FFFE900003120163FDACC6
:100B5100F0120126120234EF29FFEE3AFAA9077BBF
:100B610000A833AC32AD31D007D0061200D37E00DD
:030B71007F0122DF
:030000000208C42F
:0C08C400787FE4F6D8FD75814502090B31
:10000300E709F608DFFA8046E709F208DFFA803EDF
:1000130088828C83E709F0A3DFFA8032E309F608CC
:10002300DFFA8078E309F208DFFA807088828C8334
:10003300E309F0A3DFFA806489828A83E0A3F608E8
:10004300DFFA805889828A83E0A3F208DFFA804CC2
:1000530080D280FA80C680D4806980F28033801099
:1000630080A680EA809A80A880DA80E280CA803302
:1000730089828A83ECFAE493A3C8C582C8CCC5837A
:10008300CCF0A3C8C582C8CCC583CCDFE9DEE7804A
:100093000D89828A83E493A3F608DFF9ECFAA9F0C9
:1000A300EDFB2289828A83ECFAE0A3C8C582C8CC1F
:1000B300C583CCF0A3C8C582C8CCC583CCDFEADE38
:1000C300E880DB89828A83E493A3F208DFF980CC9A
:1000D30088F0EF60010E4E60C388F0ED2402B40493
:1000E3000050B9F582EB2402B4040050AF2323453A
:0600F3008223900053730C
:1000F900BB010CE58229F582E5833AF583E02250BC
:1001090006E92582F8E622BBFE06E92582F8E22205
:0D011900E58229F582E5833AF583E493221F
:10012600EF8DF0A4A8F0CF8CF0A428CE8DF0A42EED
:02013600FE22A7
:10013800BB010A89828A83E0F5F0A3E02250068792
:10014800F009E71922BBFE07E3F5F009E319228954
:0B015800828A83E493F5F07401932287
:10016300BB0110E58229F582E5833AF583E0F5F0DA
:10017300A3E0225009E92582F886F008E622BBFEB7
:100183000AE92582F8E2F5F008E222E5832AF583FD
:08019300E993F5F0A3E99322C2
:10019B00BB010DC58229C582C5833AC5830202E224
:1001AB005011C58229F808E5F026F618F5F0E5821E
:1001BB0036F622BBFE11C58229F808E225F0F5F0D0
:1001CB00F218E23582F222F8E58229F582E5832ADC
:0D01DB00F58374019325F0F5F0E4933822CC
:1001E800BB010A89828A83F0E5F0A3F0225006F762
:0F01F80009A7F01922BBFE06F3E5F009F319225F
:10020700F8BB0111E58229F582E5833AF583E8F029
:10021700E5F0A3F0225009E92582C8F608A6F022E6
:0D022700BBFE09E92582C8F2E5F008F222CD
:10023400BB010789828A8302030A5005E9F8020296
:10024400F8BBFE05E9F802031C89828A8302032EA7
:10025400BB011A89828A83D0F0D0E0F8D0E0F9D0CB
:10026400E0FAD0E0FBE8C0E0C0F00203135016E966
:10027400F8D083D082D0E0F9D0E0FAD0E0FBC0829D
:10028400C083020301BBFE16E9F8D083D082D0E01C
:0F029400F9D0E0FAD0E0FBC082C083020325223C
:1002A300D083D082F8E4937012740193700DA3A3EA
:1002B30093F8740193F5828883E4737402936860FE
:0602C300EFA3A3A380DFFE
:100D7500E4FFFE1202C9600C0FEF70010E09E97065
:050D8500F20A80EF22DC
:100828008E398F3A7E007F008F828E83E0FCA3E0B2
:10083800FD4C7003FEFF228D828C83A3A3E0FAA3F4
:10084800E0FBC3953AEA95395008CEECCECFEDCF10
:1008580080D6C3EB953AF53CEA9539F53BC3E53CC0
:100868009410E53B940050198D828C83E0FBA3E043
:100878008F828E83CBF0A3EBF0ED2404FFE43CFEE3
:100888002274FC253CF53C74FF353BF53B8D828C8E
:1008980083A3A3F0A3E53CF0ED2404FFE43CFEEFC2
:1008A800253CFFEE353BFE8F82F583A3A3E539F0A7
:0C08B800A3E53AF0EF2404FFE43EFE222A
:1009D0008E1A8F1B8C1C8D1DE51B451A600A90001A
:1009E00002E07002A3E07004E4FEFF22851A1E8577
:1009F0001B1FE51F24FCF51FE51E34FFF51EAF1D70
:100A0000AE1C1208288E208F21EF4E7003FEFF22AD
:100A1000851F82851E83A3A3E0FEA3E0FFC3951D6F
:100A2000EE951C50048E1C8F1DAE1CAF1DAA1AA97A
:100A30001B7B01A821AC207D011200D3AF1BAE1A95
:080A4000120561AE20AF212276
:10056100EF4E7003020663900002E07002A3E07098
:1005710003020663CDEFCDCCEECCED24FCFDEC34D3
:10058100FFFC753D00753E00853E82853D83E0FAA6
:10059100A3E08A3FF540453F6011D3E5409FE53F29
:1005A1009E5008853F3D85403E80DDE540453F60EA
:1005B1004A8D828C83A3A3E0FAA3E02FFFEA3EFEDB
:1005C100EF65407003EE653F7031854082853F8362
:1005D100A3A3E0FEA3E02404FFE43E8D828C83A369
:1005E100A38FF01202E2854082853F83E0FFA3E002
:1005F1008D828C83CFF0A3EFF0800B8D828C83E50D
:100601003FF0A3E540F0853E82853D83A3A3E0FE54
:10061100A3E0253EFFEE353DCF2404CF3400FEEFAD
:100621006D7002EE6C70308D828C83A3A3E0FEA30B
:10063100E02404FFE43E853E82853D83A3A38FF041
:100641001202E28D828C83E0FFA3E0853E82853D2C
:1006510083CFF0A3EFF022853E82853D83ECF0A3AA
:03066100EDF02297
:1008D000020CE8E493A3F8E493A34003F68001F24A
:1008E00008DFF48029E493A3F85407240CC8C33329
:1008F000C4540F4420C8834004F456800146F6DFF8
:10090000E4800B0102040810204080900D8AE47EF0
:10091000019360BCA3FF543F30E509541FFEE493EC
:10092000A360010ECF54C025E060A840B8E493A3B3
:10093000FAE493A3F8E493A3C8C582C8CAC583CADE
:10094000F0A3C8C582C8CAC583CADFE9DEE780BE96
:010D90000062
:1002C900BB010689828A83E0225002E722BBFE0233
:0902D900E32289828A83E4932266
:1002E200C5F0F8A3E028F0C5F0F8E58215827002A7
:0602F2001583E038F02244
:0902F800E6FB08E6FA08E6F9222B
:09030100EBF608EAF608E9F62221
:09030A00E0FBA3E0FAA3E0F922F4
:09031300EBF0A3EAF0A3E9F022EB
:09031C00E2FB08E2FA08E2F92212
:09032500EBF208EAF208E9F22209
:0C032E00E493FB740193FA740293F9222B
:0B0D910048000000000000000000000F
:100BCF00C3ED9428EC94005004E4FEFF22EF4E7026
:100BDF0008FE7F01ED1D70011C900000EEF0A3EFE9
:100BEF00F0A3ECF0A3EDF0900000E0FEA3E0FFF522
:100BFF00828E83E4F0A3F0ED24FCFDEC34FF8F82B2
:0D0C0F008E83A3A3F0A3EDF07EFF7FFF22F4
:00000001FF
