:100E7D000000000000000000000000000000000065
:10051500780A7C007D007BFF7A0E797D7E007F1056
:10052500120361120DB40206DA120D70EF12048186
:1005350005697705E17B065D7D06E27E0585B706E3
:1005450000BB067CBD0701BE05A3D7061FDB069BC6
:10055500DD0720DE05C2E7063EEB06BAED073FEEF6
:100565000000052EE4FFFE120D1FE4FFFE120A44F3
:100575000509E5097002050814240AF8763080A9F2
:100585007F017E00120D1F7F017E00120A440509BE
:10059500E5097002050814240AF87631808B7F027C
:1005A5007E00120D1F7F027E00120A440509E5092F
:1005B5007002050814240AF8763202052E7F037EA0
:1005C50000120D1F7F037E00120A440509E509701C
:1005D50002050814240AF8763302052E7F047E00EE
:1005E500120D1F7F047E00120A440509E5097002F9
:1005F500050814240AF8763402052E7F057E0012BC
:100605000D1F7F057E00120A440509E509700205E4
:100615000814240AF8763502052E7F067E00120D91
:100625001F7F067E00120A440509E50970020508C8
:1006350014240AF8763602052E7F077E00120D1F58
:100645007F077E00120A440509E5097002050814B2
:10065500240AF8763702052E7F087E00120D1F7FCB
:10066500087E00120A440509E509700205081424EC
:100675000AF8763802052E7F097E00120D1F7F09C4
:100685007E00120A440509E5097002050814240ACA
:10069500F8763902052E7F0A7E00120D1F7F0A7E2D
:1006A50000120A440509E5097002050814240AF830
:1006B500762E02052E7F0B7E00120D1F7F0B7E000E
:1006C500120A447B007A00790A12075E8B1A8A1B8C
:1006D500891C120CC9E4F508F50902052E7F0C7E6C
:1006E50000120D1F7F0C7E00120A440509E50970F2
:1006F50002050814240AF8762B02052E7F0D7E00CC
:10070500120D1F7F0D7E00120A440509E5097002CE
:10071500050814240AF8762D02052E7F0E7E001298
:100725000D1F7F0E7E00120A440509E509700205BA
:100735000814240AF8762A02052E7F0F7E00120D72
:100745001F7F0F7E00120A440509E509700205089E
:0907550014240AF8762F02052E87
:040DFE007FE87E0309
:100E0200758CFC758A66D28C308DFDC28CC28DEFDA
:090E12001F70011E144E70E8224D
:100DB400120E1BC280120DFEC281D280120DFEC221
:100DC40082D281120DFEC283D282120DFED2837FA3
:060DD400E87E03020E029E
:100D700075A00FE5A0540FF51D640F601D7F147E54
:100D800000120E02E51D640F6010E5A0540FF51D62
:100D900044F0F5A0E5A054F0F51E75A00FE5A054B1
:100DA0000F640F60097F147E00120E0280EFE51DB4
:030DB000251EFFFE
:010DB300221D
:100A4400EE6003020AE5EFB410004003020AE590E9
:100A54000A5AF8282873020A8A020A8E020A9202A3
:100A64000A96020A9A020A9E020AA2020AA6020A26
:100A7400AA020AB0020AB6020ABC020AC2020ACBDD
:100A8400020AD4020ADDD280801ED2808020D28065
:100A94008022D2808024D2808026D280802BD28073
:100AA4008030D2808035C280D2818016C280D281CB
:100AB4008019C280D281801CC280D281801FC280F2
:100AC400C281D282D28322C280C281D282C28322D4
:100AD400C280C281C282D28322C280C281C282C247
:020AE40083226B
:100B720000003E5149453E00000000427F40000017
:100B8200000042615149460000002141454B3200BC
:100B920000001814127F1000000027454545390057
:100BA20000003C4A4949300000000101710D030078
:100BB20000003649494936000000064949291E000D
:100BC200000000004000000000001414141414007F
:100BD200000008083E08080000000808080808008D
:100BE2000000221408142200000008082A08080045
:060E9D000175B80176406A
:100DDA00E4FE7D80FBFAEF54018DF0A42EFEEDC3F4
:100DEA0013FDEFC313FF0BBB00010AEB64084A7043
:030DFA00E5AF065C
:010DFD0022D3
:0C0E38000575AF75120E44757640AF765C
:100E4400C284C286C285D284120DDA8F90C28422F3
:100E8D00C284D286C285D284120DDA8F90C284229A
:100C6E00E4F51FF520E4F51DF51E900000E4FF12DB
:100C7E000E8DE576B47F03120E380576A3E58264F9
:100C8E0008458370E8051EE51E7002051DC3940815
:100C9E00E51D6480948040D20520E5207002051F7A
:100CAE00C39408E51F6480948040BA7575B8AF751B
:0B0CBE00120E44757640AF76020E4423
:100E1B00C2B5D2B4D2877F3F120E447FC0120E44AC
:0D0E2B007FB8120E447F40120E44020C6E80
:040D1F008E228F236E
:100D2300E4F524F525E523AE227803C333CE33CE91
:100D3300D8F92472F582740B3EF583E5822525F5F7
:100D430082E5833524F583E493FF120E8DE576B4B3
:100D53007F05120E38800205760525E5257002050C
:0C0D630024C39408E5246480948040B907
:010D6F002261
:060CC9008B1D8A1E891F2D
:100CCF00120E38AB1DAA1EA91F12041EF52185F0A6
:100CDF0020D3E5219400E52094004025E52125E06F
:100CEF00FFE52033AB1DAA1EA91F8F82F5831204C7
:100CFF0049FFAEF0120D1FE521152170D41520808C
:100D0F00D00575AF75120E44757640AF76020E445E
:100E69000000000000000000000000000000000079
:040E79000000000075
:100983008E3A8F3BAB1DAA1EA91F754120AD21AC2A
:010993002043
:0A0994008B3C8A3D893E8C3F8D406C
:10099E00E4F542F543C3E5439540E53F6480F8E551
:1009AE00426480984003020A3FAB3CAA3DA93E85B3
:1009BE00438285428312038765417067E5432401B4
:1009CE00F545E43542F544C3E5459540E53F648081
:1009DE00F8E544648098502BAB3CAA3DA93E854572
:1009EE0082854483120387FFE54524FFFDE54434E9
:1009FE00FF8D82F583EF1203B40545E54570C805FA
:100A0E004480C4E543154370021542AB3CAA3DA990
:100A1E003EE54015407002153F14F582853F83E494
:100A2E001203B40543E54360030209A3054202091C
:050A3E00A3AE3FAF4034
:010A43002290
:100BF200E53E254FF9E53D354EFAC3E551954FCF18
:0B0C0200E550954ECF2401FDE43FFCBF
:0A0C0D008B568A5789588C598D5A6E
:100C1700E4F55BF55CF55DF55EC3E55E955AE55970
:100C27006480F8E55D6480985038AB56AA57A95898
:100C3700855E82855D83120387FB3395E0FAAE5BA1
:100C4700AF5C7C007D0A1203D6EF2BFFEE3ACF2470
:100C5700D0F55CEF34FFF55B055EE55E70BB055DC7
:060C670080B7AE5BAF5C3C
:010C6D002264
:0A088D008E568F578B588A59895AEE
:10089700785D7C007D007BFF7A0E79697E007F148E
:1008A700120361E4F571F572F573F574C3E55664E7
:1008B700809480502FAB58AA59A95A055CE55CAEC5
:1008C7005B7002055B14F5828E83743C1203B4AE31
:1008D70056AF577CFF7DFF1203D68E568F57757321
:1008E70000757401D3E5579400E556648094804001
:1008F7002FAE56AF577C007D0A1203E80572E572EA
:10090700700205711425E0245DF8A60408A605AE5B
:1009170056AF577C007D0A1203E88E568F5780C466
:10092700D3E5729400E57164809480402EE57215DA
:1009370072700215711425E0245DF808E62430FF73
:10094700AB58AA59A95A055CE55CAC5B7002055B1C
:1009570014F5828C83EF1203B480C5E57445736088
:100967001AAB58AA59A95A055CE55CAE5B7002053B
:0B0977005B14F5828E83743E1203B403
:010982002252
:10000300AB1DAA1EA91F852041852142AD23AC2229
:0A0013008B3C8A3D893E8C3F8D40F6
:10001D00E4F547F548F549F54A854082853F831259
:10002D000387F54DE4F54EF54FF550F551F554F5C3
:10003D0055E54024FFF551E53F34FFF550854082ED
:10004D00853F8374201203B4E4F54EF54F8550437C
:10005D00855144AB3CAA3DA93E854482854383121C
:10006D000387FFD3648094B95012C3EF648094B0BA
:10007D00400AE544154470DB154380D7E54424015F
:10008D00F54FE43543F54EE54465517004E54365A0
:10009D00506063E5554554AB3C600C120BF27CFF90
:1000AD007DFF1203D68003120BF28E478F48E55564
:1000BD0045546010E54F154F7002154E0551E55131
:1000CD0070020550854E45854F46D3E5469551E561
:1000DD00506480F8E545648098501BAB3CAA3DA95F
:1000ED003E85468285458374201203B40546E54658
:1000FD0070D8054580D4854E52854F53E540240177
:10010D00F54FE4353FF54EE54224FFF551E5413419
:10011D00FFF550E4F554F555AB3CAA3DA93E854F8E
:10012D0082854E83120387643C704C054FE54F70FA
:10013D0002054E755400755501854E43F544C3E5D2
:10014D00449542E5416480F8E5436480985063AB83
:10015D003CAA3DA93E854482854383120387B43E64
:10016D000CE54424FFF551E54334FFF5500544E516
:10017D004470CB054380C7854E43854F44AB3CAAA5
:10018D003DA93E854482854383120387FFD3648056
:10019D0094B95012C3EF648094B0400A0544E5440D
:1001AD0070DB054380D7E54424FFF551E54334FF6B
:1001BD00F550E544654F7004E543654E6063E555C4
:1001CD004554AB3C600C120BF27CFF7DFF1203D645
:1001DD008003120BF28E498F4AE55545546010E5A8
:1001ED004F154F7002154E0551E5517002055085A2
:1001FD004E45854F46D3E5469551E5506480F8E56B
:10020D0045648098501BAB3CAA3DA93E854682852E
:10021D00458374201203B40546E54670D805458024
:10022D00D4E54D24D6602924FD601624FE602E24CD
:10023D00047039E548254AF54CE5473549F54B80BD
:10024D002BC3E548954AF54CE5479549F54B801C80
:10025D00AC49AD4AAE47AF481203D6800BAC49ADA1
:10026D004AAE47AF481203E88E4B8F4CAB3CAA3DCC
:10027D00A93E85525B85535CAF4CAE4B12088DAEDB
:03028D004BAF4C28
:01029000224B
:06075E008B1D8A1E891F9D
:10076400120E548E208F21E4F524F525F526F52765
:10077400F528F529F53AF53BF522F523C3E523954C
:1007840021E5206480F8E5226480985032AB1DAAEC
:100794001EA91F852382852283120387FF642A6092
:1007A40004EFB42F101200031209838E208F2174DA
:1007B400FFF522F5230523E52370C1052280BDE45E
:1007C400F522F523C3E5239521E5206480F8E5228D
:1007D4006480985032AB1DAA1EA91F8523828522EE
:1007E40083120387FF642B6004EFB42D10120003FF
:1007F4001209838E208F2174FFF522F5230523E54A
:100804002370C1052280BDC3E53A648094805011F1
:10081400752400752501C3E4953BF53BE4953AF551
:100824003A752200752301E53B453A6030AE3AAF94
:100834003B7C007D0A1203E8E52325E0242AF8A680
:100844000408A605AE3AAF3B7C007D0A1203E88E8D
:100854003A8F3B0523E52370CE052280CAE5254562
:100864002460130523E523700205221425E0242ABD
:10087400F8760008760DE52324FFF52BE52234FFF6
:08088400F52A7B007A00792AB5
:01088C002249
:03000000020AE60B
:0C0AE600787FE4F6D8FD758176020B2DB8
:10029100E709F608DFFA8046E709F208DFFA803E4F
:1002A10088828C83E709F0A3DFFA8032E309F6083C
:1002B100DFFA8078E309F208DFFA807088828C83A4
:1002C100E309F0A3DFFA806489828A83E0A3F60858
:1002D100DFFA805889828A83E0A3F208DFFA804C32
:1002E10080D280FA80C680D4806980F28033801009
:1002F10080A680EA809A80A880DA80E280CA803372
:1003010089828A83ECFAE493A3C8C582C8CCC583E9
:10031100CCF0A3C8C582C8CCC583CCDFE9DEE780B9
:100321000D89828A83E493A3F608DFF9ECFAA9F038
:10033100EDFB2289828A83ECFAE0A3C8C582C8CC8E
:10034100C583CCF0A3C8C582C8CCC583CCDFEADEA7
:10035100E880DB89828A83E493A3F208DFF980CC09
:1003610088F0EF60010E4E60C388F0ED2402B40402
:100371000050B9F582EB2402B4040050AF232345A9
:0603810082239002E173EB
:10038700BB010CE58229F582E5833AF583E022502B
:1003970006E92582F8E622BBFE06E92582F8E22275
:0D03A700E58229F582E5833AF583E493228F
:1003B400F8BB010DE58229F582E5833AF583E8F07F
:1003C400225006E92582C8F622BBFE05E92582C82B
:0203D400F22213
:1003D600EF8DF0A4A8F0CF8CF0A428CE8DF0A42E3B
:0203E600FE22F5
:1003E800C2D5EC30E709B2D5E4C39DFDE49CFCEE30
:1003F80030E715B2D5E4C39FFFE49EFE1204C0C3E4
:10040800E49DFDE49CFC80031204C030D507C3E4DE
:060418009FFFE49EFE229E
:10041E00BB010A89828A83E0F5F0A3E022500687A9
:10042E00F009E71922BBFE07E3F5F009E31922896B
:0B043E00828A83E493F5F0740193229E
:10044900BB0110E58229F582E5833AF583E0F5F0F1
:10045900A3E0225009E92582F886F008E622BBFECE
:100469000AE92582F8E2F5F008E222E5832AF58314
:08047900E993F5F0A3E99322D9
:10048100D083D082F8E4937012740193700DA3A30A
:1004910093F8740193F5828883E47374029368601E
:0604A100EFA3A3A380DF1E
:100E5400E4FFFE1204A7600C0FEF70010E09E970A5
:050E6400F20A80EF22FC
:100AF200020515E493A3F8E493A34003F68001F200
:100B020008DFF48029E493A3F85407240CC8C33304
:100B1200C4540F4420C8834004F456800146F6DFD3
:100B2200E4800B0102040810204080900E9DE47EB8
:100B3200019360BCA3FF543F30E509541FFEE493C8
:100B4200A360010ECF54C025E060A840B8E493A38F
:100B5200FAE493A3F8E493A3C8C582C8CAC583CABA
:100B6200F0A3C8C582C8CAC583CADFE9DEE780BE72
:010EA300004E
:1004A700BB010689828A83E0225002E722BBFE0253
:0904B700E32289828A83E4932286
:1004C000BC000BBE0029EF8DF084FFADF022E4CC20
:1004D000F875F008EF2FFFEE33FEEC33FCEE9DECE9
:1004E000984005FCEE9DFE0FD5F0E9E4CEFD22ED2F
:1004F000F8F5F0EE8420D21CFEADF075F008EF2F79
:10050000FFED33FD4007985006D5F0F222C398FD69
:050510000FD5F0EA2206
:00000001FF
