:100538001204981204168F121200038E138F1412CD
:0405480001A280EF9D
:0404E2007FE87E032E
:1004E600758CFC758A66D28C308DFDC28CC28DEF00
:0904F6001F70011E144E70E82273
:100498001204FFC2801204E2C281D2801204E2C2B6
:1004A80082D2811204E2C283D2821204E2D2837F12
:0604B800E87E030204E6E9
:1004160075A00FE5A0540FF515640F601D7F147EBF
:10042600001204E6E515640F6010E5A0540FF515FB
:1004360044F0F5A0E5A054F0F51675A00FE5A0541C
:100446000F640F60097F147E001204E680EFE51545
:030456002516FF69
:010459002280
:1001A200EE6003020243EFB41000400302024390E8
:1001B20001B8F82828730201E80201EC0201F002FA
:1001C20001F40201F80201FC02020002020402022E
:1001D2000802020E02021402021A0202200202297C
:1001E20002023202023BD280801ED2808020D28064
:1001F2008022D2808024D2808026D280802BD2801E
:100202008030D2808035C280D2818016C280D28175
:100212008019C280D281801CC280D281801FC2809C
:10022200C281D282D28322C280C281D282C283227E
:10023200C280C281C282D28322C280C281C282C2F1
:02024200832215
:1002D00000003E5149453E00000000427F400000C2
:1002E000000042615149460000002141454B320067
:1002F00000001814127F1000000027454545390002
:1003000000003C4A4949300000000101710D030022
:1003100000003649494936000000064949291E00B7
:100320000000000000000000000024242424240019
:10033000000008083E080800000008080808080037
:100340000000221408142200000008082A080800EF
:10054C000110B80111400808000000000000000074
:1004BE00E4FE7D80FBFAEF54018DF0A42EFEEDC319
:1004CE0013FDEFC313FF0BBB00010AEB64084A7068
:0304DE00E5AF0681
:0104E10022F8
:0C051C000510AF10120528751140AF113A
:10052800C284C286C285D2841204BE8F90C284223D
:10055D00C284D286C285D2841204BE8F90C28422F8
:10035000E4F519F51AE4F517F518E4F515F5167F27
:10036000017E001204E6E511B47F0312051C05119D
:1003700074082516F8E6FF12055D0516E5167002ED
:100380000515C39408E5156480948040D20518E5EE
:100390001870020517C39408E5176480948040BA6A
:1003A000051AE51A70020519C39408E519648094CA
:1003B0008040A27510B8AF10120528751140AF111A
:0303C0000205280B
:1004FF00C2B5D2B4D2877F3F1205287FC01205281C
:0D050F007FB81205287F4012052802035016
:06045A008B178A188919B6
:10046000E4F51AF51BAB17AA18A919851B82851A82
:10047000831203C3FF12055DE511B47F0512051C4D
:1004800080020511051BE51B7002051AC39408E5DF
:070490001A6480948040CE45
:010497002242
:10000300EF1203F0003B7700927B00EA7D013F7E15
:100013000050B700A8BB0100BD0154BE0066D70065
:10002300BEDB0115DD0169DE007CE700D4EB012AAC
:10003300ED017EEE0000019DE4F515F516E516AE23
:10004300157803C333CE33CED8F902019175150069
:10005300751601E516AE157803C333CE33CED8F942
:10006300020191751500751602E516AE157803C3E6
:1000730033CE33CED8F9020191751500751603E519
:1000830016AE157803C333CE33CED8F9020191757A
:100093001500751604E516AE157803C333CE33CEBB
:1000A300D8F9020191751500751605E516AE157898
:1000B30003C333CE33CED8F90201917515007516FB
:1000C30006E516AE157803C333CE33CED8F9020155
:1000D30091751500751607E516AE157803C333CE73
:1000E30033CED8F9020191751500751608E516AEE1
:1000F300157803C333CE33CED8F9020191751500B9
:10010300751609E516AE157803C333CE33CED8F989
:10011300807C75150075160AE516AE157803C33392
:10012300CE33CED8F9806775150075160BE516AE7C
:10013300157803C333CE33CED8F9805275150075C5
:10014300160CE516AE157803C333CE33CED8F9803B
:100153003D75150075160DE516AE157803C333CE40
:1001630033CED8F9802875150075160EE516AE1531
:100173007803C333CE33CED8F980137515007516C3
:100183000FE516AE157803C333CE33CED8F924D09A
:0E019300F974023EFA7BFF12045AAE15AF1645
:0101A100223B
:03000000020244B5
:0C024400787FE4F6D8FD75811B02028B68
:1003C300BB010CE58229F582E5833AF583E02250EF
:1003D30006E92582F8E622BBFE06E92582F8E22239
:0D03E300E58229F582E5833AF583E4932253
:1003F000D083D082F8E4937012740193700DA3A39C
:1004000093F8740193F5828883E4737402936860AF
:06041000EFA3A3A380DFAF
:10025000020538E493A3F8E493A34003F68001F287
:1002600008DFF48029E493A3F85407240CC8C333AF
:10027000C4540F4420C8834004F456800146F6DF7E
:10028000E4800B010204081020408090054CE47EBD
:10029000019360BCA3FF543F30E509541FFEE49373
:1002A000A360010ECF54C025E060A840B8E493A33A
:1002B000FAE493A3F8E493A3C8C582C8CAC583CA65
:1002C000F0A3C8C582C8CAC583CADFE9DEE780BE1D
:01055C00009E
:00000001FF
