:10026700120CA9120BFE020438120BBAEF1205BAD0
:1002770002AB7703237B039F7D04447E02C7B7034A
:1002870042BB03BEBD0463BE02E5D70361DB03DDEA
:10029700DD0482DE0304E70380EB03FCED04A1EE3B
:1002A70000000270E4FFFE120B6BE4FFFE1209115F
:1002B7000509E5097002050814240AF8763080A9B3
:1002C7007F017E00120B6B7F017E00120911050969
:1002D700E5097002050814240AF87631808B7F023D
:1002E7007E00120B6B7F027E001209110509E509DA
:1002F7007002050814240AF876320202707F037E22
:1003070000120B6B7F037E001209110509E50970C6
:1003170002050814240AF876330202707F047E006F
:10032700120B6B7F047E001209110509E5097002A3
:10033700050814240AF876340202707F057E00123D
:100347000B6B7F057E001209110509E5097002058F
:100357000814240AF876350202707F067E00120B15
:100367006B7F067E001209110509E5097002050871
:1003770014240AF876360202707F077E00120B6B90
:100387007F077E001209110509E5097002050814A7
:10039700240AF876370202707F087E00120B6B7F03
:1003A700087E001209110509E509700205081424E1
:1003B7000AF876380202707F097E00120B6B7F09FC
:1003C7007E001209110509E5097002050814240ABF
:1003D700F876390202707F0A7E00120B6B7F0A7E65
:1003E700001209110509E5097002050814240AF825
:1003F700762E0202707F0B7E00120B6B7F0B7E0046
:100407001209110509E5097002050814240AF8768E
:100417002A0509E5097002050814240AF876317BD4
:10042700007A00790A12064E8B1E8A1F8920120A4B
:10043700A9750A307508007509010202707F0C7EE4
:1004470000120B6B7F0C7E001209110509E509707C
:1004570002050814240AF8762B0202707F0D7E002D
:10046700120B6B7F0D7E001209110509E509700259
:10047700050814240AF8762D0202707F0E7E0012FA
:100487000B6B7F0E7E001209110509E50970020545
:100497000814240AF8762A0202707F0F7E00120BD6
:1004A7006B7F0F7E001209110509E5097002050827
:0904B70014240AF8762F020270E9
:100C6B00758CFC758A66D28C308DFDC28CC28DEF73
:090C7B001F70011E144E70E822E6
:100BBA0075A00FE5A0540FF521640F601D7F147E08
:100BCA0000120C6BE521640F6010E5A0540FF521AB
:100BDA0044F0F5A0E5A054F0F52275A00FE5A05465
:100BEA000F640F60097F147E00120C6B80EFE52101
:030BFA002522FFB2
:010BFD0022D5
:10091100EE60030209B2EFB4100040030209B29085
:100921000927F828287302095702095B02095F02A7
:10093100096302096702096B02096F02097302095F
:100941007702097D02098302098902098F02099848
:100951000209A10209AAD280801ED2808020D28001
:100961008022D2808024D2808026D280802BD280A7
:100971008030D2808035C280D2818016C280D281FF
:100981008019C280D281801CC280D281801FC28026
:10099100C281D282D28322C280C281D282C2832208
:1009A100C280C281C282D28322C280C281C282C27B
:0209B10083229F
:100BFE00C2807FC87E00120C6BC281D2807FC87EFD
:100C0E0000120C6BC282D2817FC87E00120C6BC2A6
:0D0C1E0083D2827FC87E00120C6BD283222D
:1009B30000003E5149453E00000000427F400000D8
:1009C300000042615149460000002141454B32007D
:1009D30000001814127F1000000027454545390018
:1009E30000003C4A4949300000000101710D030039
:1009F30000003649494936000000064949291E00CE
:100A0300000000004000000000001414141414003F
:100A1300000008083E08080000000808080808004D
:100A23000000221408142200000008082A08080005
:100C2B007E80E4FDFBFAEF54018EF0A42DFDEEC3A4
:100C3B0013FEEFC313FF0BBB00010AEB64084A70F2
:030C4B00E5AF050D
:010C4E002283
:0C0C4F000571AF71120C5B757240AF7242
:100C5B00C284C286C285D284120C2B8F90C284228E
:100C9900C284D286C285D284120C2B8F90C2842240
:100B1400E4F523F524E4F521F522900000E4FF1226
:100B24000C99E572B47F03120C4F0572A3E582643D
:100B340008458370E80522E52270020521C3940864
:100B4400E521940040D40524E52470020523C394D0
:100B540008E523940040BE7571B8AF71120C5B7543
:070B64007240AF72020C5B4E
:0F0CA900C2B5D2B4D2877571B8120C51020B14B8
:040B6B008E268F271C
:100B6F00E4F528F529E527AE267803C333CE33CE37
:100B7F00D8F924B3F58274093EF583E5822529F56A
:100B8F0082E5833528F583E493FF120C99E572B45F
:100B9F007F05120C4F800205720529E529700205A9
:0A0BAF0028C39408E528940040BB19
:010BB9002219
:060AA9008B218A22892343
:100AAF00E572D3944040020571AF71120C5BAB211C
:100ABF00AA22A92312055775F008A4FFC374809FBB
:100ACF00F572FF120C5BAB21AA22A923120557F571
:100ADF002585F024D3E5259400E52494004025E5F1
:100AEF002525E0FFE52433AB21AA22A9238F82F528
:100AFF0083120582FFAEF0120B6BE525152570D41E
:040B0F00152480D059
:010B130022BF
:0E085F008E288F29AB21AA22A923AD25AC2417
:0A086D008B3C8A3D893E8C3F8D4094
:10087700E4F541F542C3E5429540E541953F400324
:1008870002090CAB3CAA3DA93E85428285418312F1
:1008970004C064207061E5422401F544E43541F564
:1008A70043C3E5449540E543953F502BAB3CAA3DF8
:1008B700A93E8544828543831204C0FFE54424FF93
:1008C700FDE54334FF8D82F583EF1204ED0544E522
:1008D7004470CE054380CAE542154270021541AB0C
:1008E7003CAA3DA93EE54015407002153F14F5822C
:1008F700853F83E41204ED0542E542600302087C6C
:09090700054102087CAE3FAF403F
:0109100022C4
:100A3300E53E2551F9E53D3550FAC3E5539551CFD0
:0B0A4300E5529550CF2401FDE43FFC7C
:0A0A4E008B568A5789588C598D5A2F
:100A5800E4F55BF55CF55DF55EC3E55E955AE55D2D
:100A680095595038AB56AA57A958855E82855D833B
:100A78001204C0FB3395E0FAAE5BAF5C7C007D0AE4
:100A880012050FEF2BFFEE3ACF24D0F55CEF34FFC1
:100A9800F55B055EE55E70C1055D80BDAE5BAF5C74
:010AA800222B
:0A0783008E568F578B588A59895AF9
:10078D00E4F56DF56EC3E556648094805029055CE3
:10079D00E55CAE5B7002055B14F5828E83743C12D2
:1007AD0004EDAE56AF577CFF7DFF12050F8E568FB1
:1007BD0057756D00756E01E4F56FF570D3E55794BF
:1007CD0000E55664809480402FAE56AF577C007D77
:1007DD000A1205210570E5707002056F1425E024DD
:1007ED005DF8A60408A605AE56AF577C007D0A122B
:1007FD0005218E568F5780C4D3E5709400E56F9414
:10080D0000402EE57015707002156F1425E0245D03
:10081D00F808E62430FFAB58AA59A95A055CE55CE7
:10082D00AC5B7002055B14F5828C83EF1204ED80D6
:10083D00C7E56E456D601AAB58AA59A95A055CE516
:10084D005CAE5B7002055B14F5828E83743E120400
:01085D00EDAD
:01085E002277
:10000300AB21AA22A923852441852542AD3BAC3AE5
:0A0013008B3C8A3D893E8C3F8D40F6
:10001D00E4F549F54A854082853F831204C0F54FCA
:10002D00854082853F8374201204EDE54024FFF561
:10003D0053E53F34FFF552F54B85534CAB3CAA3D90
:10004D00A93E854C82854B831204C0FFD3648094F6
:10005D00B95012C3EF648094B0400AE54C154C7052
:10006D00DB154B80D7E54C2401F551E4354BF550AC
:10007D00E553654C7004E552654B605DE54A4549B5
:10008D00AB3C600C120A337CFF7DFF12050F800321
:10009D00120A338E438F44E54A45496010E55115E8
:1000AD0051700215500553E5537002055285504DA0
:1000BD0085514ED3E54E9553E54D9552501BAB3CB6
:1000CD00AA3DA93E854E82854D8374201204ED050F
:1000DD004EE54E70DE054D80DA855054855155E55F
:1000ED00402401F551E4353FF550E54224FFF55329
:1000FD00E54134FFF552E4F549F54AAB3CAA3DA97B
:10010D003E8551828550831204C0643C7045F5498B
:10011D00754A010551E55170020550F54C85504B5E
:10012D00C3E54C9542E54B95415063AB3CAA3DA9C7
:10013D003E854C82854B831204C0B43E0CE54C24A5
:10014D00FFF553E54B34FFF552054CE54C70D105E9
:10015D004B80CD85504B85514CAB3CAA3DA93E857E
:10016D004C82854B831204C0FFD3648094B9501226
:10017D00C3EF648094B0400A054CE54C70DB054B31
:10018D0080D7E54C24FFF553E54B34FFF552E5518F
:10019D00654C7004E550654B605DE54A4549AB3CE7
:1001AD00600C120A337CFF7DFF12050F8003120ACB
:1001BD00338E458F46E54A45496010E5511551701E
:1001CD000215500553E5537002055285504D85516A
:1001DD004ED3E54E9553E54D9552501BAB3CAA3D84
:1001ED00A93E854E82854D8374201204ED054EE5A2
:1001FD004E70DE054D80DAE54F24D6602924FD6072
:10020D001624FE602E24047039E5442546F548E594
:10021D00433545F547802BC3E5449546F548E54301
:10022D009545F547801CAC45AD46AE43AF44120530
:10023D000F800BAC45AD46AE43AF441205218E4742
:10024D008F48AB3CAA3DA93E85545B85555CAF48B4
:09025D00AE47120783AE47AF481B
:010266002275
:06064E008B218A228923A2
:10065400120C848E248F25E4F526F527F528F52938
:10066400F53AF53BC3E53B9525E53A95245032AB85
:1006740021AA22A923853B82853A831204C0FF6400
:100684002A6004EFB42F1012000312085F8E248F27
:100694002574FFF53AF53B053BE53B70C7053A8009
:1006A400C3E4F53AF53BC3E53B9525E53A9524507B
:1006B40032AB21AA22A923853B82853A831204C046
:1006C400FF642B6004EFB42D1012000312085F8E38
:1006D400248F2574FFF53AF53B053BE53B70C705D0
:1006E4003A80C3C3E5286480948050117526007550
:1006F4002701C3E49529F529E49528F528753A00DE
:10070400753B01E52945286030AE28AF297C007D82
:100714000A120521E53B25E0242AF8A60408A605CB
:10072400AE28AF297C007D0A1205218E288F290569
:100734003BE53B70CE053A80CAE53B6401453A701F
:1007440012053BE53B7002053A1425E0242AF8E43F
:10075400F608F6E52745266013053BE53B700205E0
:100764003A1425E0242AF8760008760DE53B24FFA8
:0E077400F52BE53A34FFF52A7B007A00792A4E
:010782002254
:03000000020CB837
:0C0CB800787FE4F6D8FD758172020267B7
:1004C000BB010CE58229F582E5833AF583E02250F1
:1004D00006E92582F8E622BBFE06E92582F8E2223B
:0D04E000E58229F582E5833AF583E4932255
:1004ED00F8BB010DE58229F582E5833AF583E8F045
:1004FD00225006E92582C8F622BBFE05E92582C8F1
:02050D00F222D8
:10050F00EF8DF0A4A8F0CF8CF0A428CE8DF0A42E00
:02051F00FE22BA
:10052100C2D5EC30E709B2D5E4C39DFDE49CFCEEF5
:1005310030E715B2D5E4C39FFFE49EFE1205F9C36F
:10054100E49DFDE49CFC80031205F930D507C3E46A
:060551009FFFE49EFE2264
:10055700BB010A89828A83E0F5F0A3E0225006876F
:10056700F009E71922BBFE07E3F5F009E319228931
:0B057700828A83E493F5F07401932264
:10058200BB0110E58229F582E5833AF583E0F5F0B7
:10059200A3E0225009E92582F886F008E622BBFE94
:1005A2000AE92582F8E2F5F008E222E5832AF583DA
:0805B200E993F5F0A3E993229F
:1005BA00D083D082F8E4937012740193700DA3A3D0
:1005CA0093F8740193F5828883E4737402936860E4
:0605DA00EFA3A3A380DFE4
:100C8400E4FFFE1205E0600C0FEF70010E09E9703D
:050C9400F20A80EF22CE
:1005E000BB010689828A83E0225002E722BBFE0219
:0905F000E32289828A83E493224C
:1005F900BC000BBE0029EF8DF084FFADF022E4CCE6
:10060900F875F008EF2FFFEE33FEEC33FCEE9DECAE
:10061900984005FCEE9DFE0FD5F0E9E4CEFD22EDF4
:10062900F8F5F0EE8420D21CFEADF075F008EF2F3E
:10063900FFED33FD4007985006D5F0F222C398FD2F
:050649000FD5F0EA22CC
:00000001FF
